:020000040800F2
:10000000C0200020A12C0008712900088D2C0008B8
:100010008D2C00088D2C00088D2C0008000000009D
:10002000000000000000000000000000E12D0008BA
:100030008D2C000800000000AD2D0008013D0008D7
:10004000692F0008692F0008692F0008692F000830
:10005000692F0008692F0008692F0008692F000820
:10006000692F0008692F0008692F0008692F000810
:10007000692F0008692F0008692F0008692F000800
:10008000692F0008692F0008692F0008692F0008F0
:10009000692F0008692F0008692F0008692F0008E0
:1000A000692F0008692F0008692F0008692F0008D0
:1000B000692F0008692F0008692F0008692F0008C0
:1000C000692F0008692F0008692F0008692F0008B0
:1000D000692F0008692F0008692F0008692F0008A0
:1000E000692F0008692F0008692F0008692F000890
:1000F000692F0008692F0008692F0008692F000880
:10010000692F0008692F0008692F0008692F00086F
:10011000692F0008692F0008692F0008692F00085F
:10012000692F0008692F0008692F0008692F00084F
:10013000692F0008692F0008692F0008692F00083F
:10014000692F0008692F0008692F0008692F00082F
:10015000692F0008692F0008692F0008692F00081F
:10016000692F0008692F0008692F0008692F00080F
:10017000692F0008692F0008692F0008692F0008FF
:10018000692F0008692F0008692F0008692F0008EF
:10019000692F0008692F0008692F0008692F0008DF
:1001A000692F0008692F0008692F0008692F0008CF
:1001B000692F0008692F0008692F0008692F0008BF
:1001C000692F0008692F0008692F0008692F0008AF
:0801D000692F0008692F0008E7
:1001D8007BB972B90029BEBF00204FF0004106E08C
:1001E80008BF00281CBF6FF000414FF0FF3000F03F
:1001F80057B8ADF1080C6DE904CE002909DB002BD6
:100208001ADB00F04FF8DDF804E0DDE9022304B062
:100218007047404261EB4101002B1BDB00F042F8C4
:10022800DDF804E0DDE9022304B0404261EB41015E
:10023800524263EB43037047524263EB430300F0BF
:1002480031F8DDF804E0DDE9022304B0404261EB57
:1002580041017047524263EB430300F023F8DDF895
:1002680004E0DDE9022304B0524263EB4303704724
:1002780053B94AB9002908BF00281CBF4FF0FF3105
:100288004FF0FF3000F00CB8ADF1080C6DE904CE6A
:1002980000F008F8DDF804E0DDE9022304B0704757
:1002A800704700BF2DE9F04786468C460846089EF1
:1002B800154674461946002B40F0C2808542B2FAB2
:1002C80082F245D94AB1C2F1200300FA02FC2EFAA3
:1002D80003F3954043EA0C0C94404FEA154EA8B23C
:1002E800BCFBFEF8230C0EFB18CC08FB00F943EA14
:1002F8000C43994528D9EB1808F1FF3704D29945E2
:1003080002D9A8F102072B44A3EB0903A4B2B3FB5B
:10031800FEFC0EFB1C330CFB00F044EA0344A04235
:1003280014D92C190CF1FF3304D2A04202D9ACF134
:1003380002032C44241A43EA07401EB1D440002388
:1003480034607360BDE8F0874746DDE76346F1E750
:1003580092BB431B01214FEA154EAFB2B3FBFEFC23
:10036800200C0EFB1C330CFB07F840EA03439845AE
:1003780062D9EB180CF1FF3004D2984502D9ACF1E0
:1003880002002B44A3EB0803A4B2B3FBFEFC0EFB54
:100398001C330CFB07F744EA0344A7424ED92C1937
:1003A8000CF1FF3304D2A74202D9ACF102032C446A
:1003B800E41B43EA0040C0E7C2F1200320FA03F13E
:1003C800954090402EFA03F303434FEA154EAFB21F
:1003D800B1FBFEFC0EFB1C10190C0CFB07F841EAE4
:1003E8000041884504FA02F422D969180CF1FF305B
:1003F80004D2884502D9ACF102002944A1EB0801D6
:100408009BB2B1FBFEFC0EFB1C110CFB07F743EA89
:1004180001439F420ED9EB180CF1FF3104D29F42E1
:1004280002D9ACF102012B44DB1B41EA004192E7FF
:100438006046E3E76146F7E76046A3E76346B7E748
:10044800834206D916B9002108467BE7C6E900E0D1
:10045800F9E7B3FA83F78FB9834201D3724508D815
:10046800BEEB020460EB030301209C461EB9002189
:1004780068E73846FAE7C6E9004CF8E7C7F1200C08
:10048800BB4022FA0CF41C432EFA0CF120FA0CF3B0
:10049800B84001434FEA14490EFA07F5B3FBF9F8DF
:1004A8001FFA84FE09FB18300B0C08FB0EFA43EA0E
:1004B80000439A4502FA07F240D9E31808F1FF30E1
:1004C80004D29A4502D9A8F102002344A3EB0A03F7
:1004D80089B2B3FBF9F809FB183308FB0EFE41EAB1
:1004E80003418E452CD9611808F1FF3304D28E459B
:1004F80002D9A8F10203214443EA0040A0FB029874
:10050800A1EB0E014145CE46434602D306D14D45E7
:1005180004D2B9EB020E68EB04030138002EA6D012
:10052800B5EB0E0261EB030101FA0CFC22FA07F3AA
:100538004CEA0303F940C6E9003198E74046C5E7AD
:100548004346D9E710F8012B11F8013B012A28BFCF
:100558009A42F7D0D01A7047034611F8012B03F8D6
:10056800012B002AF9D17047034613F8012B002A02
:10057800FBD1181A013870472DE9F04704468AB0B4
:100588008846174607F04CFB0A220023FFF770FE47
:10059800B8F1010F06460D4608D1CDE900012A4AF7
:1005A8000821204605F043FD002012E07F68274817
:1005B8003946FFF7C7FF78B125483946FFF7C2FF2C
:1005C80050B12046234A3B46012105F030FD6FF02B
:1005D80004000AB0BDE8F0873046294618A3D3E9DD
:1005E8000023FFF7F5FD06460D46104619461A4A40
:1005F8000023FFF7EDFD80460F46104619464EF6DC
:1006080060220023FFF7E4FD82468946104619461A
:100618004FF47A720023FFF7DBFDCDE904A9CDE999
:100628000601CDE90823CDE90287CDE900650B4A2B
:100638000821204605F0FBFCB6E700BFAFF30080B9
:10064800005C2605000000007A8E00088B8E0008EA
:100658008E8E0008978E000880EE3600AE8E000859
:1006680010B50446094803691B689B0683684FF068
:10067800200154BF1B69DB6898472046044A0821BB
:1006880005F0D5FC034B0120187010BD94820008BA
:10069800E08D00085C0A0020F8B5184D284607F0E0
:1006A80022F9044688B12A69A968136823F020034F
:1006B80013600B684FF4202205212846984700282C
:1006C80003DB0F4E0F4F33780BB10020F8BDAB683A
:1006D80020215B69284698470028F6DB84F001044E
:1006E80014F0FF040849094818BF394604F068FEA9
:1006F800002142F2107004F031FAE4E79482000815
:100708005C0A0020F98D0008FC8D0008008E0008A6
:1007180008B500F0B7F80A4941610A490122C0E961
:1007280000220A6008490A60084A00231360084A40
:1007380003611360C0E90233064A136008BD00BFB5
:10074800DA8F00081C00002018000020C8050020CF
:10075800C4050020C00500202DE9F04107460E46DB
:10076800154600F08FF8C36804461BB943691A7828
:10077800002A41D10023E3606368BB4256F8232076
:1007880008DB324B6361204600F062F84FF0FF301F
:10079800BDE8F081511C616192F80080B8F12D0F1D
:1007A800EFD1911C61615178A1602D2904D1927813
:1007B8006AB901336360E4E749B9244B6361414690
:1007C800284607F0D3FB0028DDD0C4F80880D4F809
:1007D80008802846414607F0C9FBB8F13A0F63691B
:1007E80000D070B91B7813B9636801336360204681
:1007F80000F02EF83F20CBE75A1C42611B7883603B
:10080800E5E742783A2A0BD0002222611B7813B917
:10081800636801336360204600F01AF8A068B7E700
:1008280018786268094928B901329742626004DD84
:1008380056F82230C4E90431EAE761612D783A2D8F
:100848002046D5D100F004F82846A1E7DA8F000841
:10085800074B02681A60074B42681A60064B8268A9
:100868001A60064BC2681A60054B02691A60704725
:100878001C00002018000020C8050020C405002026
:10088800C00500200048704700000020014B1B688D
:10089800184700BF2000002030B585B004460D463B
:1008A80010220021684607F031FC02238DF802303F
:1008B8002A46044B01932146684604F09BFE05B086
:1008C80030BD00BF95080008014B1860704700BF95
:1008D8002000002080B505460E461746984604F0CD
:1008E8005BF9034607F022FCDFF81890044649F844
:1008F8000030424630463946A84754F8090002F00D
:10090800F9F900BF0800000008B50446EFF31183A9
:10091800102383F31288BFF36F8F06F0CEFF2046B3
:1009280002F0D6F9024805F02DF906F01BFAFCE7AB
:10093800378E0008034A536823F0020353600020EF
:10094800704700BF002004E00D4B0E4A1A600E4AA3
:10095800536843F0010353600C4B9A6D42F0805288
:100968009A659B6D0A4A82B003F080530193019BFC
:100978009368002043F48043936002B0704700BF3F
:10098800C40000200024F400002004E0001002400D
:1009980000700040014B036000207047CC860008BF
:1009A80008B5034A034B082105F041FB002008BDA8
:1009B800678E0008608E000810B5044603F042FAFE
:1009C800084A03460821204605F031FB064A20461E
:1009D800082105F02CFB0548214604F099F9002070
:1009E80010BD00BFFC8E00081B8F0008F909000825
:1009F80070B58EB004460D46D0F89C6006F0C5FF71
:100A0800024607F093FB254B1958254B002A18BFBF
:100A18001346CDE90043234A234B28468C4218BF8E
:100A28001346224A082105F002FBD4E90A23CDE93E
:100A3800022394F90E300093237B1D4A284608218F
:100A480005F0F5FA06A92022204603F009FD626E9A
:100A580000920346174A0821284605F0E8FA05A936
:100A6800204606F0A2FF034630B1134A0821284663
:100A780005F0DDFA0EB070BD059A6423B11ACDE910
:100A880000214B430D4AB3FBF6F30821CDE902637D
:100A98002846334605F0CBFAECE700BF0800000013
:100AA800258F00088C970008359F0008288F0008BC
:100AB800348F0008608F0008778F0008A48F000823
:100AC800F0B5002593B0044629460AAF1C220BA8AE
:100AD80007F01CFB144E1A222021384607F016FB9B
:100AE8002146124804F014F909AA4FF4006130466F
:100AF80006F04FFF09996422C1F5006042434FF4A4
:100B08000063D20ACDE90403CDE9023106922046FA
:100B1800CDE90057064AA6F14003082105F087FAF7
:100B2800284613B0F0BD00BF40130020990B000801
:100B3800DB8F000810B5044603F0A2F9034A034608
:100B48000821204605F073FA002010BD2490000803
:100B580037B5134600220192054601AA58680A21B2
:100B680001F08AFA019C4CB920EAE0700A2180FB66
:100B7800010103F0F3FF204603B030BD2346034ACA
:100B88000121284605F053FA019CF4E73A90000841
:100B9800F0B50446D0F89C6089B00D4607A906F068
:100BA80004FF034630B1104A0821284605F03FFAF1
:100BB80009B0F0BD204606F0E8FE0C4F079A002861
:100BC80018BF0746B11A6423CDE902214B43CDE98A
:100BD8000076B3FBF6F3064ACDE904630821234601
:100BE800284605F024FAE3E7778F0008258F0008E8
:100BF8005A9000082DE9F04387B00546684603F08F
:100C0800F7F9009E184A194FDFF86480DFF86490FE
:100C1800142303FB00660821284605F008FA009C07
:100C2800B44203D3002007B0BDE8F08323680BB1BA
:100C38001A7832B923463A46142101A804F0D2FBA7
:100C480001AB42460821284605F0F1F9204606F096
:100C58004AFE094B094A002808BF4B460821284686
:100C680005F0E5F91434DBE7AF910008B991000805
:100C7800BE910008A6910008A091000814980008E9
:100C88008B1E022B2DE9F04107468846144637D8BB
:100C980060681022002104F047FCB8F1020F0646F4
:100CA80007D1264A20230821384605F0C0F93368C1
:100CB80016E00A220021A06804F036FCC5B21F4ADB
:100CC8002B460821384605F0B2F9B8F1040F1AD0BE
:100CD800102D0DD0202DEAD0082D0CD13378DBB2A1
:100CE800174A0821384605F0A2F90020BDE8F0812E
:100CF80033889BB2F4E7134A0821384605F097F980
:100D08006FF01500F2E7E0681022002104F00CFCF7
:100D18000D4A034604460821384605F088F9102D87
:100D280006D0202D07D0082DE5D1E4B23470DCE7D9
:100D3800A4B23480D9E73460D7E700BFF791000840
:100D4800229200080C920008339200082DE9F04F17
:100D5800594BDFF868A185B09146012207468846BD
:100D68001A60FFF7D5FC4FF0FF3520262C46494680
:100D780052464046FFF7F0FC411C07D16A1C52D18D
:100D88004F4A0121384605F052F91DE0732820D05A
:100D9800772833D0612817D1DFF828B11022DBF883
:100DA8000000002104F0C0FB05460028DFD107F051
:100DB800BDF9454B1B58162BD9D1DBF80030434AF7
:100DC8000121384605F033F96FF0150005B0BDE88C
:100DD800F08FDFF8F0B00022DBF80000114604F0D5
:100DE800A3FB04460028C2D107F0A0F9364B1B58D4
:100DF800162BBCD1DBF80030354AE1E7DFF8C4B088
:100E08000022DBF80000114604F08EFB064600289D
:100E1800ADD107F08BF92C4B1B58162BA7D1DBF85B
:100E280000302C4ACCE7631C01D12B4AA9E75FFAB2
:100E380086F8C6F3C406002C3CD06B4629461A46F1
:100E4800A6EB050C0CE0B8F1100F1DD0B8F1200F7F
:100E580020D0B8F1080F2AD10878187031443344EB
:100E6800A64203D80CEB01001028ECD9102CA1469F
:100E780028BF4FF0100929464B46384600F0C8FFF6
:100E88001035A4EB0904D6E7088880B21870000A68
:100E98005870E3E7086818704FEA102E83F801E0ED
:100EA8004FEA104E000E83F802E0D870D6E70B4ADE
:100EB800082167E7204689E718000020819200088A
:100EC80088920008C00500200C0000004792000826
:100ED8005A9200086D920008A59200080C9200082A
:100EE80070B5104E044633780D4681B12BB1BDE87C
:100EF80070400D4A012105F09AB8012333700B4A5E
:100F08000821204605F093F80123337004E083F0AC
:100F180001033370002BF2D129462046BDE870400A
:100F280005F0C7B85D0A0020BF920008FA920008D1
:100F380070B504463C480378182B02D10B78112B66
:100F480031D0013A0B468D18AB4225D18B5C0A781B
:100F58000370A2F13003092B344C04D922F020038A
:100F6800413B052B04D823683149CA540133236017
:100F78002368022B34D110222D48002104F0D4FA22
:100F88002C4A136803F8010B13602B4A13680133CA
:100F980013600023236023E013F8016B182ED3D1CC
:100FA8001E78112ED0D1244D244A2B6808212046C2
:100FB80005F03DF820460021FFF792FF204B1878F6
:100FC80070B9204A2B681168042B0ADC08B111603B
:100FD8002B6013F003010BD1126813681BBA13605E
:100FE80070BD086800BA41F8040B043B0120EBE728
:100FF8005B4203F0030358BF5942022904D1126827
:1010080013885BBA9BB2EAE70329E9D11068026842
:101018001104C2F3074301F47F010B4302F47F423A
:1010280013430360DCE700BF5E0A0020CC05002004
:10103800600A0020D8050020D0050020249300086D
:101048005F0A0020D40500202DE9F84F0C462B49F3
:10105800DFF8AC80DFF8AC90DFF8ACB000230B60B1
:101068002A4988F8003006460B601546012C2F46A1
:1010780055F804AF1ED902224946504606F083FFB0
:1010880080B99AF80220003A18BF012292442049F8
:101098000222504606F077FF30B9012388F8003065
:1010A800013CE3E70022F1E749465046FFF74AFAD8
:1010B800A8B9043700221146786804F0BFF9154B27
:1010C800002211461860786804F0B8F9124B1349E9
:1010D80018603046FFF704FF0020BDE8F88F9AF843
:1010E80000202D2AE6D19AF80120002AE2D05346A2
:1010F8005A460821304604F09AFFD1E7CC05002073
:101108005F0A00203E93000844930008D0050020A1
:1011180041930008D8050020D4050020390F0008A5
:1011280013B5094806F0DFFB58B1084A06491268AA
:10113800074800240094012300F0DCFE204602B09A
:1011480010BD6FF01200FAE7A8820008588800085E
:101158000086000810B54468C4E90012A36042681C
:101168004023D36402F15803136300230821C2E922
:101178000E33C2E91133C2E90633C2E90933D16239
:101188001468536302F150011364116153611362CF
:10119800C2F8D030A36823B19B6C13B10449204630
:1011A8009847A3689B6A0BB120469847002010BD5A
:1011B800C35D000810B581680446183101F090F944
:1011C800A168034A20461831BDE8104001F02EB945
:1011D800B994000838B58368D3F87832DB07044639
:1011E8001AD4406803685B689847054620B9E068E8
:1011F80005F0E4FCA3681D75A3685B6C13B1294670
:1012080020469847A36806F091FF0022C3F82023E0
:10121800034B185801F06EFD6FF00F05ECE700BFA7
:1012280008000000014904F080BE00BFD98F000803
:10123800F7B504468068D0F878325A070D4605D5C8
:10124800002104F094FEE06805F08AFCE368DB689E
:1012580073B9002D3BD0A66806F15607384604F04E
:101268005EFE002835D0394606F5AB70FFF774F9F5
:10127800A268E0680DF106035632294605F073FCB2
:1012880058B9A06800F5AB715630FFF765F9A0684A
:10129800563004F044FEADF80600204605F0FBF990
:1012A800A368D3F874329B0603D50B49606904F030
:1012B8003CFE204600F048FFA268BDF80630A2F8C0
:1012C8005230A2682046A2F8503005F049F903B020
:1012D800F0BD86F85601CBE77C8600082DE9F04F73
:1012E800A7B004465422002111A806F00FFF0023DE
:1012F800CDE90533A36820465633029305F0D2F9A9
:10130800204605F016F910B96069FFF78BFFA06851
:1013180014220021183006F0F9FE204605F0B0F836
:10132800A168E068B1F850205631002605F052FC5B
:10133800204605F0D1FC4FF0FF37B24603960DF179
:101348004408B3463546B146DDE90532012A6DD079
:10135800132B6ED85FBBBBF1000F0AD0204605F0F7
:10136800DCFCA2681423563211A90DEB030004F02B
:1013780006FFB9F1000F0CD099F81130FE2B08D1F7
:10138800059B26AA02EB830252F8542C0AB10133BA
:101398000593A068059D436A002B40F0B680CEB146
:1013A800C3699E422DD00D9600F1180524E0029ADB
:1013B8000223414606A804F0E2FE0699D8F8042064
:1013C8000292034631B101290AD148B16D4A20463B
:1013D80005F01AFA6FF00705284627B0BDE8F08F28
:1013E800059B002B34D0D8F8000001F099F898B18B
:1013F80066B1A5680D9618350CAE0FCE0FC53368CB
:101408002B602046FFF7D6FE0125E5E75E4A01215D
:10141800204605F0F9F9DDE7059BCBB1D8F80020A7
:101428002946204601F02EFA022809D1059B132BE4
:1014380091D9069B022B8ED1544B554A0121C6E700
:10144800032805D0059B013305934FF0010B7BE77B
:10145800039B33B9D8F8001007AA484604F086FF62
:10146800054608F10408013F9DB3EB68BBF1000F86
:1014780008D0F3B1204605F015F9204605F070F8BC
:10148800444AC4E7ABB1A368DDF814A0AE4603F143
:10149800180CBEE80F00ACE80F00DEF80030CCF8FE
:1014A8000030AB682BB96B7CFE2B04BF2F7C07F197
:1014B800FF37D5F804C0BCF1000F08D0AE46BEE82F
:1014C8000F000CAE0FC6DEF8003033606646A94642
:1014D80003E0059B53B101230393069B17B9022B25
:1014E8007FF432AF059B013305932DE7A368DB6AD0
:1014F80013B1DB68002BEED1274B0093274A119BD1
:101508000121204605F080F9E5E790F82830A5EBA1
:101518000A05BBB190F829104FF6FF72FF2918BFD2
:101528000A469D4202D313449D420BD983691C4A43
:101538000121204605F068F92046FFF73BFE6FF0D1
:10154800150549E7012104F007FDA06800F543707F
:1015580004F026FDA36811AA294602EB8A025B6AF9
:10156800204698470546A0684FF0FF324FF0FF33FA
:1015780000F5437004F0BBFCA068002104F0ECFC0B
:101588002AE700BFC7940008DB9400083C950008D0
:101598000B8E0008F9940008289500082898000880
:1015A8006095000810B5836802221A7583689B6CE1
:1015B8000446BBB904F072FC8368D3F87832DB04C4
:1015C8000BD50321084B094A05F01EF9A0686FF4F2
:1015D800805100F51E7004F07BFC2046BDE81040E9
:1015E80000F006BF10BD00BF7B950008C091000841
:1015F8002DE9F04F04468068B1B0012100F51E7056
:1016080004F057FCA3681B7D022B20D1002309930B
:10161800A36860689E6C03681D6909AB0EB310224D
:101628001BA9A847099B93B1A068012104F094FC69
:10163800099A1BA92046B047A068002104F08CFC39
:10164800A3689B6C002BE3D12046FFF7ABFFA06893
:101658006FF0010100F51E7031B0BDE8F04F04F0E5
:1016680037BC01220DF12301A847099B002BEED0BE
:101678009DF923209DF82310A368002AC8DB5A7D12
:10168800032A00F29882DFE812F0040085029C0227
:1016980096020D297CD00A2958D0B3F878226FF326
:1016A800CA02A3F878220929A06800F086803DD8EC
:1016B8000029ADD0082900F0FC810346D3F8742234
:1016C8009207A5D501391629A2D801A252F821F00E
:1016D8006D1C0008F51A0008FD1A0008ED1A00082C
:1016E800611C00081B1B00081916000819160008C1
:1016F8001916000819160008231B00082B1B0008E0
:1017080019160008551B0008191600085F1B000869
:1017180019160008191600081916000819160008E5
:10172800631B0008191600088D1B00081B2941D0EF
:101738007F2900F0CA81A1F120025E2A0346BDD8A4
:10174800012104F014FC9DF82310B9E0D3F87822A5
:10175800C2F3C7022AB1D3F87822C2F3C7020A2A11
:10176800ACD1B3F8782261F3CA02A3F87822A5684D
:10177800B5F85010C1B9284604F0F9FBE06805F047
:10178800EFF96069FFF74EFD2046FFF70BFF3FE7D3
:10179800D3F87822C2F3C702002AE2D0D3F878221D
:1017A800C2F3C7020D2ADBE72046FFF797FDC5F80D
:1017B8002403E9E7012343752AE7D0F874329B072D
:1017C8007FF526AF012104F0D2FBA068B0F85030B5
:1017D800FF2B3FF41DAFB0F8522000F1560100F581
:1017E800AB7006F06BFCA368B3F8522013440025D5
:1017F80083F85651A2681BA9142302F5AB720BA8F3
:1018080004F0BDFC0B9914293FF602AF30AB03EB93
:10181800810343F8545CA368B3F85220002A53D0DC
:10182800134493F85530202B02D0093B042B4BD896
:1018380000294CD100250A950A9B30AA02EB8303A4
:10184800002653F854AC504604F069FBB346814671
:10185800B046374616AA3946284600F0D3FB034659
:10186800002840D1012EA76865D10A9B30AA02EB57
:10187800830353F8540C04F052FB07F11802064690
:101888004146284600F0BEFB0568284604F047FBA1
:10189800864205D0821B92B2A919204604F0FBFFAC
:1018A800A068B0F85230034493F85630202B31D05A
:1018B800093B042B2ED9D0F87432DF072FD420210E
:1018C800204600F05DFDA3E60129B3D901390020C7
:1018D8000CAB009301900AAB1BAA04F072FD0546FD
:1018E8000028A9D194E61B6803934A465146184636
:1018F80006F049FB60B9039B1846FEF735FE5845CC
:1019080038BF58461FFA80FB002E08BFB84601367C
:1019180001379FE70121204604F056FE78E60021B2
:1019280004F02FFB2021204600F02AFDA0680121A9
:1019380004F027FB6CE604907FF66AAE0A9A30AB97
:1019480003EB8202C14652F8543C0393184604F054
:10195800E6FA049B0590A7F840300496A268494629
:101968001832284600F04EFB039BD0F800A009F17E
:1019780001094BB1BAF1000F06D0059A1946504635
:1019880006F001FB0028E9D1A168BAF1000F4ED199
:10199800A1F840A0049B013B0493DFD16069FFF7E5
:1019A80041FC204600F024FD0A9B30AA02EB830389
:1019B80008F1010A53F8540C04F0B1FA414611AA8F
:1019C8008146284600F01EFB0746A0683968FF22BA
:1019D80000F5AB7006F0E9FA3B6803934FF6FF7722
:1019E800B84616AA514628460AF1010B00F00AFB30
:1019F800002852D0A168036801F25511002211F89D
:101A080001EF985C704503D110B101324245F6D11F
:101A1800B9F1000F01D04A4507DBBA4206F1FF369B
:101A2800A8BF3A46012E97B237D0DA46D9E7994887
:101A3800069104F074FA069907914A8F00EB0B0798
:101A4800BFB2121A504692FBF7F292B2069204F015
:101A580066FA0799069A3F1AB1F8400000F1010C9E
:101A6800A1F840C0B0FBF2F102FB110080B2BFB296
:101A780060B9884B884ACDF800A00621204604F0BA
:101A8800C3FE3946204600F049FB83E7834A5346A4
:101A98000621204604F0B8FEF3E7002F3FF4B8AD66
:101AA8000399A7EB090292B24944204604F0F3FED9
:101AB800AEE5D0F874329E077FF5AAAD012104F097
:101AC80056FA204604F008FFA2E5D0F874329D07C4
:101AD8007FF59EAD012104F04AFAA368D3F8743269
:101AE8001907EED4204604F0D8FE91E5204604F00C
:101AF800E2FD8DE5204604F0D5FD204604F019FDF1
:101B080010B96069FFF78EFBA068012104F02FFA75
:101B18003AE6204604F0D8FD7AE5204604F0DFFDD9
:101B280076E5D3F874329B0603D55D49606904F005
:101B3800FCF9A368D3F874329F0603D55949606944
:101B480004F0F3F9204600F053FC61E5002120463B
:101B5800FFF76EFB5CE50121F9E7204604F09BFDE9
:101B6800204604F09BF90121A06804F000FAA3685C
:101B7800D3F874329E067FF54BAD4B49606904F08B
:101B8800D4F945E5204600F059FBA068012104F08E
:101B9800EEF93DE55B2902D102225A7538E5D3F802
:101BA80074329D0706D5622907D14FF0FF312046D0
:101BB80004F033FDA3680022EFE76629FAD101217A
:101BC800F5E700225A75A268D2F8743298077FF5B3
:101BD8001FADA1F131031B2B3FF61AAD01A151F83E
:101BE80023F000BF691C0008751C0008891C000848
:101BF8005D1C0008191600081916000819160008B7
:101C080019160008191600081916000819160008F0
:101C180019160008191600081916000819160008E0
:101C2800191600085F1B0008551B00081B1B00083D
:101C3800F51A000819160008611C00081916000892
:101C48006D1C000819160008191600081916000856
:101C5800791C000803235375204604F023FDD7E4BC
:101C680003235375204604F016FDD1E4032353756E
:101C7800A068D0F8741201F0010181F0010157E663
:101C880003235375A368D3F874329B077FF5C0AC60
:101C980028E700BF8B970008BF950008C09100088F
:101CA80081860008868600087C86000810B50446F0
:101CB8008068037D012B1DD14FF0FF324FF0FF33B9
:101CC80000F5437004F013F92046082100F078FA73
:101CD800206804F024F918B10849606904F025F96E
:101CE8002046FFF75FFCA06800F5437004F058F940
:101CF800002010BD6FF08500FBE700BFD88F0008FB
:101D0800F8B504468068154600F51E70002935D0E0
:101D18004FF4804104F0CDF8A368DD64606803687F
:101D280000219B689847002844D12046FFF7BEFF52
:101D380000283FD1204E214FA06800F52F704FF0AA
:101D4800FF324FF0FF33032103F060F90546A06826
:101D58004FF0FF324FF0FF3300F543709DB104F0B0
:101D6800C6F820462B46164A012104F04DFDA0680E
:101D7800BDE8F84000F5437004F012B96FF48041F3
:101D880004F0A6F8C8E704F0B2F83246022120466B
:101D980004F0AFF820463A46294604F0AAF86068ED
:101DA80003685B6903B19847A06800F5437004F0C5
:101DB800F7F8C1E7F8BD00BFDD110008F915000804
:101DC800C595000810B50D4A0446082104F02FF9FE
:101DD80020460B4A082104F02AF92046094A08211E
:101DE80004F025F92046084A082104F020F9204685
:101DF800064A002100F01AFB002010BDDC950008FF
:101E08001A96000879960008CD960008679700088A
:101E1800F8B51E4617460B462F4A0821044604F01B
:101E280006F96EB33B782D4A0821204604F0FFF8E6
:101E380001256A0704D12A4A0821204604F0F7F848
:101E4800AE4223D97B5D254A0821204604F0EFF8ED
:101E58000135102DEDD1234A0821204604F0E7F87A
:101E6800D6B91F4A0821204604F0E1F80125AE4200
:101E78002B4613D81A4A0821204604F0D8F818E04F
:101E8800194A0821204604F0D2F80125164A0821EB
:101E9800204604F0CCF8DBE700252B46FB5CA3F1D9
:101EA80020025F2A28BF2E23104A0821204604F06A
:101EB800BEF80135102D07D06B07D8D1084A082184
:101EC800204604F0B4F8D2E72046094ABDE8F840B5
:101ED800082104F0ACB800BF7D970008849700087B
:101EE8008C9700088E9700088A970008B09700081A
:101EF800909700082DE9F043044680688846D0F89A
:101F0800201389B015461F46002960D14FF44A7244
:101F180006F0FCF8E06804F0C5FEA06800F5437020
:101F280005F026FD4FF42F794FF41F76A068304452
:101F380005F0DAFFA0680022831901214844103611
:101F480005F0A9FFB6F52F7F09F11409EED1A369B1
:101F580000261E60A068022100F51E7003F0A9FF8C
:101F6800A36850225A87A36818221A872168204636
:101F780004F06AF8A368174A66F38205C3F8745236
:101F88006068036841461D682346A8470546D0B9DE
:101F9800A36801221A75D4E9090100220023CDE9BA
:101FA80006230E230393109B0495CDE90173009437
:101FB800094B4FF4006202F017FBA368C3F8200333
:101FC800216A02F03DFA284609B0BDE8F0836FF0B7
:101FD8007705F8E74D5F0008091D000810B50446AD
:101FE80013460A460146064801F034F923691B796D
:101FF80023B12046BDE8104004F061B810BD00BF11
:10200800DF60000838B50B46154648B91449154A2B
:10201800521AB3EB920F05D251F82350284638BD17
:1020280084680CB90025F9E70F4A94420AD30F4A8D
:10203800944207D218462268294690472B68002BFD
:10204800ECD1EFE70A4A944202D30A4A944205D3F4
:10205800246814225343E518E358F0E70133F8E7FE
:102068002C860008588600086C8600086C860008D4
:10207800588600086C860008F7B5164602780023D3
:102088002D2A0446019305D16FF015033360002013
:1020980003B0F0BD06F04AF80B4F0546C3510A4697
:1020A800204601A903F040FAEB59222B02D16FF028
:1020B8002103EBE7002BE7D1019BA342E4D01B7877
:1020C800002BE5D0E0E700BF0C0000008368D3F8E0
:1020D80074329B0603D50249406904F00CBA704774
:1020E8008C860008014904F006BA00BFD98F0008A1
:1020F8000A1E0DDC0ED042238168D1F874128906BD
:1021080008D5002A04494069B8BF524204F0F3B91F
:102118004123F1E7704700BFAC9700080A1E0DDCA9
:102128000ED044238168D1F87412890608D5002A94
:1021380004494069B8BF524204F0DDB94323F1E7CE
:10214800704700BFAC9700082DE9F0478568DFF8B5
:102158006890044605F15600FEF706FA002395F844
:102168003C7086B29846A268558FED1BB54209DBD4
:10217800002E1FDD563360691049BDE8F0471A4448
:1021880004F0B9B91D442A44563392F856A082F88F
:102198005680A26860691A44494604F0ACF9A368FD
:1021A8002B4483F856A0A3685B8FDB1BF61A002725
:1021B8002B46D8E7BDE8F0870B8E0008C0910008D1
:1021C80008290A4617D8836893F83E10914212D01E
:1021D80083F83E208368082AD3F8743205D099061C
:1021E80009D50549406904F086B99B0603D503491A
:1021F800406904F080B97047B397000891860008D9
:1022080038B50D4609780446FFF7DAFF6A78072AD9
:1022180011D8A36893F83F1091420CD083F83F205F
:10222800A368D3F874329B0605D560690249BDE8F6
:10223800384004F060B938BDBC970008F8B5836829
:10224800B3F850200446002A55D0B3F8521000299C
:1022580051D0553103F156050B441846A84206D310
:10226800014611F80169202E3CD0A8423CD286B222
:102278009DB2AB1B9BB2591C471CD21A014438466D
:1022880005F02AFFA268B2F85030711B13FA81F3E7
:10229800A2F85030A368B3F850201344002283F802
:1022A800562009B2204604F08FF9A368D3F8743297
:1022B8009A0603D51049606904F01DF93B460F4A98
:1022C8000821204604F0A0FA2046FFF7FFFEA36885
:1022D800D3F874329B060ED560690949BDE8F84009
:1022E80004F009B90846B9E7014611F80169202E3A
:1022F800BDD00846B9E7F8BD96860008C091000829
:102308009A8600082DE9F04104460D4617460AB1A1
:10231800FFF7DCFEA368B3F85220D3F874125632E4
:1023280013444A0721D51846FEF71EF9DFF84880FE
:102338000646A6B9A368B3F85020A3F85220A068AF
:1023480004F0E6F820B107B115B16069FFF7CAFEDD
:102358006942204609B2BDE8F04104F035B9606928
:10236800414604F0C8F8013EE3E7044A0821204644
:1023780004F04AFADEE700BF359F0008C091000864
:1023880013B583688DF80710D3F874220446D00774
:1023980025D5B3F85210B3F850208A421FD0481CF4
:1023A800A3F852000B449DF8072083F85620A36831
:1023B800D3F87412890710D5D3F8743260690B49C1
:1023C80013F0040F18BF2A2204F095F8204604F0F1
:1023D800B0F810B16069FFF785FE02B010BD0122A8
:1023E8000DF10701204604F01CFAF6E7B097000843
:1023F80010B504468368094A022104F005FAA36867
:10240800D3F874329B0707D52046FFF79DFE204678
:10241800BDE8104004F0B3B810BD00BFC09100087B
:10242800014904F06CBA00BFD98F00082DE9F04FBC
:102438000E46002189B0044617460D4603AA3046C9
:1024480001F10108FFF7DEFDB0B995B127B13A46B1
:102458000821204604F0D8F91E4FDFF87C90DFF8F9
:102468007CA0002103AA304601F10108FFF7CAFD4C
:1024780060B909B0BDE8F08F006810B1FEF774F8D4
:1024880080B2854238BF05464146D7E703688BB11D
:102498001A787AB1D0F804B04A46CDE90053082139
:1024A8003B46204604F0B0F9BBF1000F04D1606947
:1024B800FFF7B6FF4146D5E7524620463B4608217E
:1024C80004F0A2F96A1D92B25946204604F024FA93
:1024D800F0E700BFDF970008C5970008CC97000811
:1024E800F7B50F6805460E46A7B13846FEF73CF823
:1024F80084B2094B00932846084A3B46082104F059
:1025080083F9E21C716892B2284603B0BDE8F04036
:1025180004F002BA3C46ECE7DB970008C0950008D7
:1025280010B507490446FEF70DF838B105492046AD
:10253800FEF708F8B0FA80F0400910BD0120FCE76A
:10254800D1970008D497000810B58368D3F874327F
:102558009B06044603D50649406904F054FAA3686B
:1025680050225A87A36818221A87002010BD00BF7E
:102578009E86000808B58369034A1B68082103F092
:1025880056FD002008BD00BFE29700082DE9F34181
:102598000F4A104C104EDFF844800821054603F01E
:1025A80046FD0023B44203F1010703D3002002B023
:1025B800BDE8F081226A0192A26800929BB242466D
:1025C8000821284603F033FD2C343B46EAE700BFD8
:1025D800F2970008008600082C8600080A98000870
:1025E80008B5024903F030FD002008BDDA8F000865
:1025F8007FB50F4E04460025A268E0680DF10E0372
:1026080002F5AB72012104F0AEFABDF80E00A36822
:1026180050B103F5AB73009332462B460821204690
:1026280003F005FD0135E7E783F8560104B070BDF6
:102638001B98000810B5044603F033FD034A03460F
:102648000821204603F0F3FC002010BD3A9300084F
:10265800022907B50DD1536801930E4B00931368F7
:102668000D4A012103F0E3FC6FF0150003B05DF89B
:1026780004FB8368094AD3F8743213F0020F4FF051
:102688000801074B08BF1346064A03F0D0FC002098
:10269800ECE700BF2E98000825980008188E00085F
:1026A800609100084398000810B58368D3F8743225
:1026B8009A06044603D50749406904F0A4F9A368BB
:1026C800D3F874329B0603D50349606904F09BF97B
:1026D800002010BDA5860008AA860008F0B50129CB
:1026E80085B004460CD053680193604B009313687F
:1026F8005F4A012103F09BFC6FF0150005B0F0BDA7
:102708008368D3F87432990603D55A49406904F0AE
:102718007AF96FF0F9012046FFF7EAFCFA21204622
:10272800FFF7FCFCA06800254FF48072294600F5ED
:10273800AB708DF80B5005F0E9FC4F49606904F067
:1027480062F9606903F0BBFC4FF47A76606803684D
:1027580001221F690DF10B0103ABB847039BF3B9C5
:10276800013E4FF47A70B6B205F0AEF8002EEDD106
:10277800A368D3F874329B0603D54049606904F016
:1027880042F9A36850225A87A36818221A8720465C
:102798003B4A032103F04BFC6FF00700AEE79DF8BE
:1027A8000B20A3681B2A53D093F856111B29CDD1AF
:1027B800522A4DD15A19002382F85631A66896F844
:1027C80057215B2A2BD106F25710022510F8011F5A
:1027D8002A463B2905F10105ADB223D1FF2AC7D00E
:1027E80002F5AB7216FA82F1002211F8010F18BB3C
:1027F80086F85601FA2AA16828BFFA224A87FA2BD6
:10280800A26828BFFA231387A368D3F874329A06FC
:1028180003D51A49606904F0F6F800206EE786F8D7
:102828005631A5E703EB8303303901EB4301B5F5D6
:10283800807F8BB2CAD19BE7013502EB8202ADB231
:10284800303800EB4200B5F5807F82B2CDD18FE7FA
:102858002B440135ADB2092D83F856217FF676AFAA
:10286800A368002283F8562182E700BF2E9800084B
:1028780025980008B08600088E980008B4860008DD
:10288800549800082DE9F04F074689B01546894647
:1028980021B1104604F00CFA00285BD1032455E05E
:1028A8005C463CE029460AF5AB7005F09AFB064603
:1028B800002854D0FDF758FE82B2601C0132314620
:1028C800304405F009FC22465946304605F0F6FB2F
:1028D8004FF020033355BAF8543001331C44AAF89A
:1028E800544008F10108002401994B1C03AA4846EA
:1028F8000193FFF787FB0646E8B1316800222846B6
:1029080004F07EFB0028EFD1D6F800B0D7F808A075
:10291800BBF1000FC4D05846FDF726FE84B2BAF8C2
:1029280054302344FF2BBDDD0E4A2B460321384685
:1029380003F06AFF0124B8F1000F07D0B8682A46EF
:1029480000F1540100F5AB7003F0E9FC204609B032
:10295800BDE8F08F4FF0000841460224C5E7022485
:10296800E9E700BF569D000808B5034B1B68984768
:10297800BDE8084000F026B86400002030BFFFF72B
:10298800FDBF00BF2DE9F0410B4EDFF8308006EBAC
:102998000807CC1B054632460949204605F08EFB40
:1029A800A01942460021083C05F0B0FBC5F8A84034
:1029B80007F10800BDE8F0810000000008000000F1
:1029C8006C860008074A936893F90E10002907DB04
:1029D800526993421FBF044A536843F080535360BF
:1029E800704700BF200A002000ED00E070B5264BBC
:1029F80015469A6A12F0100F9A6A14BF112410240F
:102A080012F0080F9A6A18BF1224920706460AD5D0
:102A1800586B9A6A140634D519B19A6A22F0800262
:102A28009A62132401E06FF01500174B9A6A12F0AE
:102A3800010F9A6A18BF142412F0200F9A6A18BF5F
:102A48001524D20602D49B6A9B070AD50E4B5B68F5
:102A5800190506D5314600F035FA10B180F309881A
:102A68000224094B9A6A920642BF5A6A22F400521B
:102A78005A629A6A42F0FF029A6200232B7020463B
:102A880070BD6FF01500CCE700ED00E0134B9A6ABB
:102A980012F0007F9A6A14BF1E201D2012F0807F5A
:102AA8009A6A18BF1F2012F4002F9A6A18BF2120B3
:102AB80012F4802F9A6A18BF222012F4003F9A6AF3
:102AC80018BF232012F4803F9A6A6FEA02426FEA25
:102AD80012429A6218BF2420704700BF00ED00E040
:102AE80010B5194B0246986A9C6A10F4805F14BFAF
:102AF8001720162014F4006F9C6A18BF1820A4052C
:102B080009D5986B986A000404D51AB19A6A22F418
:102B180000429A6219200C4B9A6A12F4806F9A6AE2
:102B280018BF1A20D2050CD49B6A13F4005F18BF93
:102B38001C20054A936A43F47F43936200230B7079
:102B480010BD1B20F5E700BF00ED00E0F0B5484BD5
:102B58005B688BB00446C3F30803002585F311882E
:102B6800BFF36F8F02F07F40B0F17F4F11D102F0B9
:102B78000C0008280DD010074CBF0C460125002278
:102B8800033B8DF80720032B05D8DFE803F0246307
:102B980067602C46F3E700239DF80720CAB902AE08
:102BA80004F1200720686168324603C20834BC4239
:102BB8001646F7D1099A002D54D0C2F3080121B95D
:102BC8006FEA52226FEA4222099202A9184604F0DB
:102BD800B4F80BB0F0BD264BDA6A9107DBD4DA6A99
:102BE800002AD8DBDA6A5200D5D55A69A16942F4BD
:102BF80080725A61BFF34F8FBFF36F8F5A6931F8F4
:102C0800021C22F480725A61BFF34F8FBFF36F8F9B
:102C18004DF6027291420AD09A6AD2B24AB10DF1C7
:102C2800070201212046FFF7E1FE0346B4E72368C7
:102C3800B2E79A6A12F47F4F05D00DF1070101201F
:102C4800FFF74EFFF1E79B6AB3F5803FA3D3FFF789
:102C58001DFFEAE70DF107020021E3E70DF1070187
:102C68000020EDE722F4FF7222F00102ACE700BF7A
:102C780000ED00E0024A536943F0100353617047C6
:102C880000ED00E0EFF30880EFF3098101B572462B
:102C9800FFF75CFF01BD00BF102080F311880B48CF
:102CA8004FF0AA014FF4046204F04BFE07484FF4BA
:102CB8000461401880F30988EFF314800221084367
:102CC80080F31488BFF36F8F00F0BCF80013002066
:102CD800BFF34F8F0549064BCA6802F4E0621343FD
:102CE800CB60BFF34F8F00BFFDE700BF00ED00E0F2
:102CF8000400FA05084B9B6883420BD1EFF3058368
:102D080043B1064B5A6842F080525A605A6A22F41C
:102D180000425A6204F026BF200A002000ED00E0BD
:102D28000A4A93686FF00A01C3F8B0100849C3F85B
:102D3800AC004B6843F080534B60002383F3118849
:102D4800BFF36F8F9368D3F8B0007047200A002054
:102D580000ED00E010B50446EFF31183102383F370
:102D68001288BFF36F8F0C4B586998600B4B4FF06C
:102D780000625A600A4BD0F8A8201A600022D0F8E6
:102D8800AC30C0F8AC2083F31188BFF36F8F00F02C
:102D980005F9204610BD00BF200A002000ED00E024
:102DA800080900200B498A684FF030001044EFF3FF
:102DB800098C80E8F01F74467046FFF7CBFFA646E3
:102DC80004498A6802F1300090E8F01F8CF3098802
:102DD80070470000200A00201EF0040F0CBFEFF31C
:102DE8000880EFF30980816911F8021C0229FFD0DD
:102DF80001B503F0A8FF01BD40B2002807DB044A73
:102E08004109012300F01F00834042F82130704738
:102E180000E100E040B20028A8BF00F1604001F1E5
:102E28000101B8BF064B4FEA0111ACBF00F5614084
:102E380000F00F00C9B2B4BF195480F800137047EE
:102E480014ED00E00F4A08B50F4B22F07F029A609C
:102E5800BFF34F8FBFF36F8FD3F8882022F470022F
:102E6800C3F88820EFF3148323F0040383F3148852
:102E7800BFF36F8F01F056F901F06EFF00F064F8B0
:102E880001F098F90000000800ED00E042F8203C4D
:102E9800009B42F81C3C0A49019B42F8183C029BE3
:102EA80042F8143C21F001014FF0807342F8043CD1
:102EB80042F8081C0023203A0265C0F8AC3070477D
:102EC800DD0800080A4A0346906878B113F1160F26
:102ED800D0F8980005D0A0F140029A4205D8834264
:102EE80003D2814228BF002070470020704700BFEE
:102EF800200A002008B515460C4A0D4B9060D0F802
:102F0800A8201A600E4600F049F82C4686F3098876
:102F18004FF00000074B984720464FF000014FF054
:102F280000024FF00003044C204700BF200A002095
:102F3800080900205F6D0008DD080008014B102219
:102F48001A61704700ED00E0044800231021C21800
:102F58000133662B82F80013F9D1704700E100E0D5
:102F680008B5EFF30583064A103B02EBC30152F89C
:102F7800330049688847BDE80840FFF723BD00BF14
:102F8800D0820008024B034A0348012100F078B8B8
:102F98000000022000000020648B0008D0F8982070
:102FA800054B403A1A60054A4021C3E90112184608
:102FB800012100F06FB800BF0C09002000000B15BC
:102FC800084AC2F898000B6823F01F03034343F034
:102FD8001003C2F89C308B6843F00103C2F8A0309C
:102FE800704700BF00ED00E02DE9F043DFF8608096
:102FF80085B00E461F4604464FF00009B14523DA56
:103008006068D8B13FB1411E08421BD11F2819D9A9
:103018002368194216D12368019303F0B0FEA36810
:1030280003430393D8F89050C5F30725D0B2013D68
:10303800A84207D801A9FFF7C3FF421C09F10109FB
:103048000C34DBE76FF01502104605B0BDE8F083DD
:1030580000ED00E0044B0522C3F89420BFF34F8F26
:10306800BFF36F8F704700BF00ED00E0BFF35F8FC5
:10307800024B0022C3F89420704700BF00ED00E027
:1030880010B5034C01232278FFF7AEFF207010BD66
:10309800800A002008B50B4A00231278FFF7A4FF26
:1030A80010F1160F07D0084A0021D2F89030C3F368
:1030B8000723984200DB08BDC2F89800C2F8A010A8
:1030C8000130F2E7800A002000ED00E02DE9FF4121
:1030D800524B534CD3F890302568C3F307239D42D5
:1030E80000F29980FFF7C2FF00200C26854218D114
:1030F8004C4C4D4F25706846FDF74CFCDFF81C81A1
:1031080006460025AE4213D1237844490020D1F861
:103118009020C2F30722934277DBFFF79BFF002042
:103128001CE0616806FB0011FFF74AFF0130DDE78C
:10313800009800EB05114FEA051CCB683B40B3F53E
:10314800000F50D00DD8B3F5001F36D0B3F5800F5F
:103158003ED0B3F5801F13D06FF0150004B0BDE862
:10316800F081B3F1807F47D0B3F1007FF4D150F8FC
:103178000C3088684A6803F002FE40F4802009E0B9
:1031880050F80C3088684A6803F0F9FD40F0885020
:1031980040F43020CDE901230390D8F8903020780E
:1031A800C3F30723013B9842D6D801A9FFF708FFCC
:1031B8002378013323700135A4E750F80C30886870
:1031C8004A6803F0DCFD40F0885040F40020E1E755
:1031D80050F80C3088684A6803F0D1FD40F0E06090
:1031E80040F40030D6E750F80C3088684A6803F09D
:1031F800C6FD40F08270CDE750F80C3088684A6808
:1032080003F0BDFD40F08870C4E7C1F89830C1F8FC
:10321800A00001337BE74FF0FF309FE700ED00E0AF
:10322800708B0008800A00200000F0FF08B5024BF0
:103238001B689847002008BD18090020034B044A62
:103248001860937843F002039370704718090020C0
:1032580068000020F0B587B007460E4614460021E6
:10326800102268461D4604F051FF02238DF80230F3
:103278002A46054B019321466846CDE9047602F0BB
:10328800B9F907B0F0BD00BFA76D000808B5064939
:10329800064821F00701C1F1005202F5003202F0A0
:1032A80032FC002008BD00BF472700201C09002071
:1032B8002DE9F0410F4E104F054600244FF001084C
:1032C8002B7853FA84F01F280DDC726908FA00F392
:1032D80033EA020207D1736157F830301BB107EBAC
:1032E800C002516898476A780134E3B29A42E7D23B
:1032F800BDE8F0810004014028090020044B18446F
:1033080000230133994200F8012BFADC704700BF13
:10331800D800002010B4064B064902460C6818561F
:103328000123934023430B6010BCFFF765BD00BF2A
:10333800D8000020000401401F2806DC03490122B0
:103348000B68824023EA02030B60704700040140C7
:1033580003292AD8DFE801F0020E141F134B0122BB
:103368009968824021EA02019960D96821EA02023B
:10337800DA6070470D4B0122996882401143F3E7E8
:103388000A4B0122D96882401143D960996821EA21
:1033980002029A607047012303FA00F0034B9A680F
:1033A80002439A60DA681043D8607047000401400D
:1033B80030B50A4B53F830408C4204D103EBC005BA
:1033C8006D68954205D034B943F8301003EBC0035B
:1033D8005A60002030BD6FF00F00FBE7280900207D
:1033E800034B002243F8302003EBC0035A607047B8
:1033F8002809002010B5214B18680B68082B1446C3
:1034080016D00B2B0BD89BB1013B0A2B10D8DFE849
:1034180003F017162E163331160F1A252500582BD0
:103428000ED008D84C2B0BD0502B09D0482B07D0E6
:103438006FF0850006E05C2B02D0602BF7E70020D8
:103448002060002010BD00F0C1F80623B0FBF3F0A7
:10345800552358430723B0FBF3F0F1E700F0B6F823
:103468000623B0FBF3F0552358434008E8E74FF430
:10347800FA40E5E70248E3E70248E1E7C400002034
:1034880000366E01006CDC02F8B54C4F4C4C00F075
:10349800BBF8384603F07DFE00F006FDA368494AF4
:1034A800C3F303131578D35C05F01F0503F01F035E
:1034B80020FA03F647FA05F5AE4202D2284600F094
:1034C80029FD236823F480232360236843F4803391
:1034D800236023689A03FCD5D4F8943043F00103A1
:1034E800C4F89430D4F894309B07FBD5D4F89830BE
:1034F80043F00103C4F89830D4F898309807FBD506
:10350800A36803F00C030C2B18D12368590506D4C3
:10351800236843F48073236023685A05FCD5A368A5
:1035280023F0030343F00103A360A36803F00C0333
:10353800042BFAD1A36823F0F003A360236823F0D7
:1035480080732360E36823F0605323F4003343F06F
:103558006053E360E36843F48033E360E36823F493
:10356800C003E360E36843F48013E36000F032F8DB
:10357800236843F08073236023689B01FCD5A3680C
:1035880023F0F003A360A36843F00303A360A368D8
:1035980003F00C030C2BFAD1AE4202D3284600F0FC
:1035A800B9FC094B1F60A36823F4E063A360A36818
:1035B80023F46053A3600020F8BD00BF80FE210AF9
:1035C80000100240839E0008C40000200048704795
:1035D80000366E010A4AD2F8803023F48073C2F8AC
:1035E800803002F5D032074BD1680B4043F4AA4330
:1035F80043F05303D360D36843F08073D3607047BC
:10360800007000400C80FFF9064B9A6D42F0805222
:103618009A659B6D82B003F080530193019B02B0C1
:10362800704700BF0010024008B5074804F05BF976
:1036380038B10648FFF702FE0448FDF745F90020B7
:1036480008BD6FF01200FBE7A88200085936000891
:103658000A2838B5074D044604D1AB680D215B68CC
:1036680028469847AB6803485B68E1B2984720460C
:1036780038BD00BFA882000838B503690446586001
:10368800084D284604F02FF940B16168AB680C3149
:103698001B682846984700EAE07038BD6FF01200B2
:1036A800FBE700BFE081000873B50C461146B1F591
:1036B800001F456802691E4628D104F0030304333D
:1036C8009B000F229A4042EA940202F0030302335D
:1036D800374951F82310130C93FAA3F3B3FA83F381
:1036E80001EA124203F01F0322FA03F3AA689A427E
:1036F80009D12046FFF720FE2046FFF771FE002182
:103708002046FFF725FE002002B070BDB1F5800FFE
:1037180044D028492046FFF74BFE002841D1B6F196
:10372800806F37D0B6F1C06F36D0B6F1007F3BD18D
:103738000226214AAD6892E803006B4683E803003D
:103748001E488268194612689047D8B904F00303E6
:1037580004339B000F21994041EA940101F00303CF
:103768009B0003F1804303F580330A0C986892FAB2
:10377800A2F2B2FA82F202F01F0220EA1141954049
:103788000D439D6020463146FFF7E2FD2046FFF7D6
:10379800C1FDB8E70126CCE70326CAE76FF085002C
:1037A800B2E76FF00F00AFE76FF01500ACE700BFAE
:1037B80000000140A77300086C860008E08100083B
:1037C8002DE9F0471E4F044600EBC1060025B44220
:1037D80001D1002014E02068C30600F01F0911D4AD
:1037E800656845F02005C0F3471AC0F343200A284E
:1037F80023D857F82080B8F1000F0DD16FF01200D0
:10380800BDE8F087B9F1100F04D0B9F1110FEAD172
:103818006568E8E73025E6E7404604F064F80028E4
:10382800ECD04B462A460AF00F01404603F0CEFD85
:10383800002804F10804CADAE2E76FF01500DFE7B0
:10384800448C0008012912D0022907D089B90068E0
:10385800094BC01A18BF0120000370470068064BC7
:10386800984214BF4FF440504FF400507047002066
:1038780070474FF4005070470080004043681B6851
:1038880003F1080252E8002F42F0010203F1080098
:1038980040E800210029F3D10F4A93420FD0A2F546
:1038A800744293420BD002F58062934207D002F52E
:1038B8008062934203D002F58062934203D15A6832
:1038C80042F040025A6053E8002F42F4807243E805
:1038D80000210029F7D170470038014043681B6870
:1038E80003F1080252E8002F22F0010203F1080058
:1038F80040E800210029F3D10F4A93420FD0A2F5E6
:10390800744293420BD002F58062934207D002F5CD
:103918008062934203D002F58062934203D15A68D1
:1039280022F040025A6053E8002F22F4807243E8E4
:1039380000210029F7D170470038014070B51D46B5
:10394800094B002633F812203346FCF791FC090294
:1039580041EA10616C08000220182A46334641F1FA
:103968000001FCF785FC70BDC88D0008F7B5026939
:10397800436810681D680C46D9688368DB68B3B172
:1039880001AA9847002812DB214B9D4232D1019FA2
:10399800204E00252346AAB238460021FFF7CEFF65
:1039A800A0F54070B04204D901350C2DF2D103B016
:1039B800F0BD174EF36A23F00F032B43F362002C7C
:1039C800F5D0154B33F81520002319463846FCF777
:1039D8004FFC090241EA106163080002C018224640
:1039E8004FF0000341F10001FCF742FCC0F3130063
:1039F800F060DCE72B6823F400432B60019B002C6C
:103A0800D5D003EB5403B3FBF4F39BB2EB60CEE7E2
:103A180000800040FFFC0F00C88D00082DE9F84326
:103A280006460A794068336904685F68012A0D46CA
:103A380058D0931ED3F1000848EB03084FEA8828B2
:103A48006979FFF7FFFE95F80690B9F1020F034672
:103A58004BD0B9F1040F4CD0002A54D0033A012AB4
:103A680049D94FF48050B3F5805F4ED0B3F5405F2D
:103A78004DD0002B0CBF0123032399423BD1414673
:103A880003F004FD814536D1EB79C3B1012B40D158
:103A9800214B9C4213D0A3F574439C420FD003F5ED
:103AA80080639C420BD003F580639C4207D003F5EA
:103AB80080639C4203D003F540539C421BD123688A
:103AC80023F0010323602946304603F05BFE236898
:103AD80043F00103236095E8030087E80300002012
:103AE800BDE8F8834FF4C068AAE73AB94FF08050B0
:103AF800B9E7002AB5D06FF08500F1E7033A012A4B
:103B0800F9D90020AFE71046ADE70023B5E7022357
:103B1800B3E7032BBCD0EEE7003801402DE9F341B1
:103B28000469476806465148206003F0DCFE20B966
:103B38006FF0120002B0BDE8F0812068F968836870
:103B48001B6898470028F5DB386A01AA002103F0B2
:103B580052FC0028EEDB019B002219791868FFF758
:103B68002FFE0028E6DB756833692C68D3F80480DB
:103B7800236823F001032360686803F0B4FE00287B
:103B8800D6D0D5E901018368DB6803B1984754E8CA
:103B9800003F43F00C0344E80032002AF7D14146C5
:103BA800304603F0EFFD2B7D1BB1A36843F00803FB
:103BB800A3606B7D1BB1636843F400436360AB7D16
:103BC8001BB1636843F480336360EB7D1BB16368AA
:103BD80043F4003363602B7E83B3254B9C4213D0A0
:103BE800A3F574439C420FD003F580639C420BD02D
:103BF80003F580639C4207D003F580639C4203D0A1
:103C080003F540539C422ED173681A68936843F4B5
:103C18008043936023686A7E23F0787343EA4253B3
:103C280023602368AA7E23F4F81343EA024323603F
:103C3800EB7E1BB1A36843F40043A3602B7F1BB149
:103C4800236843F000532360236843F00103236093
:103C5800E3699A02FCD5E3695B02FCD530467B6ACE
:103C68009847002066E76FF0150063E7E0810008D9
:103C78000038014010B54FF0E0230F499C691A69DC
:103C880008689B690D4902F4803234B993B9034638
:103C98004AB90A681044C01A10BD002B08BF034671
:103CA8000AB9A342F5D90A6802440A604FF0E02233
:103CB8001269EEE70446F3E71C0A0020180A002000
:103CC8000A4B102283F82320094B44F268221A6019
:103CD800084B002018604FF0E02344F267225A6135
:103CE80098611A6942F007021A61704700ED00E016
:103CF8001C0A0020180A002010B5FFF7BBFF104B64
:103D08001049D3E900420868001942F10002C3E9EA
:103D180000020D4A00230B60D2E9004144F26823F7
:103D2800001BB0FBF3F043431B1941F10001C2E94A
:103D3800003101F0EBF8BDE81040FEF743BE00BFCC
:103D480098020020180A0020900200202DE9F04176
:103D5800DFF8DC8099B1421C0BD14FF0E0221369E7
:103D680023F0010313614FF07F43C8F80030BDE82A
:103D7800F081D8F80060012807DC00270BE0431C1D
:103D8800D8F80060F7D140F2D93040F2DA339842DF
:103D9800A8BF1846471EEFF31185102383F3128836
:103DA800BFF36F8FFFF766FF224C4FF0E02399694E
:103DB800D4E90023801843F10003C4E900031E4B33
:103DC80000221A601D4B1A68831A2ED444F2682CFC
:103DD8000CFB073303F584436733B3FBFCF7131A73
:103DE8000CFB073340F22642934238BF1346144A6D
:103DF800934228BF13464FF0E022C8F80030013B39
:103E080090695361002393618142A1EB0003D4E9D7
:103E1800001238BF9B195B1842F10002C4E9003256
:103E280085F31188BFF36F8FA1E740F22643E2E7DD
:103E38001C0A002098020020180A00209002002086
:103E48002882FF0038B5EFF31185102383F3128819
:103E5800BFF36F8F084B1C68084B1B68E41AFFF709
:103E680009FF85F31188BFF36F8F44F2682320445C
:103E7800B0FBF3F038BD00BF98020020900200208C
:103E880038B5EFF31185102383F31288BFF36F8FD2
:103E9800044B1C68FFF7EEFE85F31188BFF36F8FA4
:103EA800204438BD98020020174B9A6802F00C0293
:103EB800042A23D09A6802F00C02082A20D09A68B3
:103EC80002F00C020C2A1DD1D968DA68D868DB68C0
:103ED80001F00301C3F341630329C2F30312C0F3E2
:103EE800062003F101030CBF084909495B000132B0
:103EF800B1FBF2F25043B0FBF3F07047044870474F
:103F080002487047002070470010024000366E01DA
:103F18000024F400294A1368D2F8802012F4807F24
:103F280003F4C063264A00F1FF3124D1914242D8FC
:103F3800B3F5007F2FD1234B984234D8224B9842B7
:103F480033D8224B984234D8214B984294BF002052
:103F58000120204A136823F00F03034313601368FA
:103F680003F00F0398421CBF136803F00F03C01A35
:103F780018BF0120704791421DD8B3F5007F0AD1C0
:103F8800154B98420FD8154B98420ED8144B9842AF
:103F98000FD8144BD9E7B3F5806F08D1124B98426C
:103FA80007D8124BD1E70420D3E70320D1E700203C
:103FB800CFE70220CDE70120704700BF0070004026
:103FC8007FFE210A00321B088065140600990D0443
:103FD80080CC060200200240000E2707804A5D05BB
:103FE8000087930380C3C90100366E01001BB70028
:103FF800034A044B02609B1A1420B3FBF0F070478D
:10400800E0810008D082000838B5EFF3118510234D
:1040180083F31288BFF36F8F064B9C6803F076FC1E
:1040280085F31188BFF36F8F2046BDE83840FEF74F
:1040380061BE00BF200A002038B5094B53F8204064
:10404800013053F82050A54200D838BD636823B129
:10405800204603F05EFC0834F5E723689847FAE742
:10406800708D000870B52A4B2A4C2B4D012286B062
:1040780003201A70FFF7E0FF01F048F80420FFF76B
:10408800DBFF2646AE4204F1300410D300F0A8FC52
:10409800204C224EAC4226D300F0B6FCFCF7FCFACA
:1040A8001F4A137B23F00103137306B070BD54F845
:1040B8000C3C059354F8103C049354F8143C0393B7
:1040C80054F8183C029354F81C3C019354F8203CD3
:1040D800009354E90A2354E90C0100F009FA54F852
:1040E800303C5E65CDE7D4E90A23B3F1FF3F08BF52
:1040F800B2F1FF3F05D052EA0301206803D103F073
:1041080046FC3034C6E73146183000F085FEF8E743
:10411800810A00200086000800860008D57A000879
:104128005803002008B50348034A0021121A03F077
:1041380008FC08BD00010020840A002070B5174E55
:10414800174D184986B0B82303FB0066164B059334
:1041580001220F23CDE903320023CDE901331423D3
:1041680003FB005504464FF4C07000FB04110F4BCD
:1041780000954FF4A072304600F0BAF9737B0C4AF0
:10418800EE6023F0040373734FF4046304FB0333FA
:1041980013442C746B6006B070BD00BFA0020020F1
:1041A800200A0020401B0020939E00085379000835
:1041B80000130020BFB50020FFF73EFF2B4B83F311
:1041C80008882B4D2B4E6B692B4F43F400736B61A2
:1041D8000024F02385F82230EC772C766C76AC76C8
:1041E80085F820406B6A43F4E0236B62FEF742FDDA
:1041F800FEF7A4FE4FF0FF33AB62EB62FEF766FFFB
:10420800FEF7C0FE1D4BB36040F201129A81C3E96C
:104218002644C3F8A44003F065FB0120FFF70CFF18
:104228000220174DFFF708FF00F00EFC154B7561D3
:104238000593012314490094CDE903434FF48062A8
:104248003B46CDE90144284600F052F96A7B064610
:1042580022F0040228466A7303F0EFFB2046FFF7BA
:104268006DFF3A4631462846FEF744FE401B0020C3
:1042780000ED00E0200A00206D4000081004002036
:1042880058030020989E0008C01C00202DE9F34127
:10429800044617461E46EFF31188102383F312884D
:1042A800BFF36F8FC368334A7BB1806891688842D7
:1042B80019D057EA060318D188F31188BFF36F8F16
:1042C8006FF00F0002B0BDE8F081916891F90E100F
:1042D80021610133E3609368A36088F31188BFF319
:1042E8006F8F0020EEE72169F2E791F90E1090F93F
:1042F8000E309942A8BF19466FF07E029142B8BFAE
:1043080011468B422DDD03F02BFB0546CDE90076E7
:1043180019482246414600F0AFFA0028E1D0EFF3F1
:104328001186102383F31288BFF36F8FA068D0B172
:10433800236821699C420AD04BB193F90E30994207
:10434800A8BF19466FF07E039942B8BF194603F01B
:1043580007FB40B10848314600F0FEFA6FF00A004A
:10436800B0E70025D2E7002DF4D186F31188BFF31A
:104378006F8FF3E7200A0020820A002038B583688F
:1043880004466BB3194A926893422CD1C368012B37
:1043980003D9013BC360002038BDEFF3118510231A
:1043A80083F31288BFF36F8F0169806803F0D8FA2E
:1043B800204603F0A5FBA06060B190F90E202261B1
:1043C8000022C0F8B02003F038FB0948294600F065
:1043D800C3FAE0E7E06085F31188BFF36F8FDAE78F
:1043E8006FF01500D8E74FF0FF30D5E7200A00201E
:1043F800820A002038B50446EFF31185102383F3B1
:104408001288BFF36F8F03F07BFB50B10022C0F816
:10441800B02003F012FB29460848BDE8384000F0F8
:104428009BBAD4E902329A4218BF0133A360022131
:1044380004F1100003F03EFDEDE700BF820A002002
:1044480010B5044608B9054B9C681F2204F1780092
:1044580003F0ABFD002084F8970010BD200A00206F
:104468002DE9F74F0C46D1B3CAB3477BDFF8748008
:10447800561E08466FB34FF000094D464FF0010A2B
:104488000AFA09FB17EA0B0F1DD0D8F80410721BA3
:104498008A4228BF0A46D8F80010019203F00EFE9F
:1044A800019A37EA0B07154404EB050011D0A6EB77
:1044B800050BBBF1010F28BF4FF0010B0A495A4603
:1044C80003F0FCFD5D4409F1010908F108086019D1
:1044D800D6E700230370204603B0BDE8F08F0348F9
:1044E800FAE700BF888D00089D9E0008DA8F000853
:1044F8002DE9F04FD51D85B025F0070504461F4668
:104508007F3500F15803C0E9163325F03F05129BAB
:10451800237300200E46119BDDF838B0DDF84C807F
:10452800A06004213F2DC4E906006173A373E07302
:1045380006F1400AA5F1400905D880F31188BFF3B8
:104548006F8F084602DF4A463544AA21504603F0D9
:10455800DDFD29462046FEF715FA0730109B20F0AE
:104568000700C4E926A9C4F8A00002930F9B2D1ADE
:10457800CDE900B32A463B4631462046FEF786FC85
:104588000F9BE3664FF00009109BC4F85490C4E9F0
:10459800197B2367EFF31182102181F31288BFF38F
:1045A8006F8F104E316A6167346282F31188BFF3EE
:1045B8006F8FB8F1000F11D01F22414604F1780027
:1045C80003F0F3FC84F89790B3680BB1D3F8A430E8
:1045D800C4F8A430284605B0BDE8F08F84F8788088
:1045E800F2E700BF200A0020F0B587B00025059546
:1045F800109D04950F9D03950E9D0295DDE9127699
:104608000D9D01950C9D00950446FFF771FFB6F1CD
:10461800FF3F08BFB7F1FF3F05D056EA070305D1B2
:10462800204600F0ABF9204607B0F0BD03493A46F2
:10463800334604F1180000F0EFFBF4E7D57A0008E0
:1046480038B50D4D2B4653F8184F9C4200D004B98D
:10465800EC68AB6838B95A7BD20604D1A26912B9A2
:10466800DA897F2A05D89C4202D0204600F0DAFA7F
:1046780023466B6138BD00BF200A002008B590F9B9
:104688000D20437B002A014604DA03F07F034373BD
:1046980003F090F9044B9868431A58425841BDE812
:1046A8000840FFF7CDBF00BF200A002070B490F982
:1046B8000D30427B002B29DBD30627D183692BBB26
:1046C800134962F07F0242730A4652F8184F944227
:1046D80018BF2346CC6923B9C0E900242060C8610B
:1046E8000CE090F90E5093F90E60B5420AD0AE4234
:1046F80008DD5A68C0E900321060586070BC0020BC
:10470800FFF79EBF9C42E7D01B68E4E770BC704788
:10471800200A00202DE9F041002A427B0E460CBFFA
:1047280010210821114204460FD141EA0203D2099F
:1047380018D1437308291BD00120FFF781FFBFF36D
:104748005F8F637B23F0600363732C4B9B68A342EA
:104758004ED1EFF30583002B4AD13046BDE8F04136
:10476800FEF7DEBA03F07F03437303F023F9E1E7B2
:10477800A36813B1204603F025F904F1180003F0EB
:1047880036FAA56D04F15807AF4211D04FF0000872
:1047980075B1284603F016F905F1180003F027FA59
:1047A800C5F8B0802846FFF781FFA56DAF42EFD16D
:1047B800124DAB689C4206D00120FFF741FF20460E
:1047C80000F088FABBE7EFF30583002BF4D0012053
:1047D800FFF736FF204600F07DFA094BAB6040F248
:1047E80001129A810022C3E92622C3F8A420A6E771
:1047F80086F31188BFF36F8FBDE8F081200A00208F
:104808001004002070B590F90D20437B002A014662
:1048180004DA03F07F03437303F0CCF84B7B154AAB
:1048280063F07F0310464B7350F8183FD4698342F6
:1048380008BF002323B9C1E900042160D1610CE05D
:1048480091F90E5093F90E60B5420ED0AE420CDDD0
:104858005868C1E90030016059609068431A5842AD
:10486800BDE870405841FFF7EBBE9C42E3D01B689F
:10487800E0E700BF200A0020F8B5124B0C461146AD
:10488800114A98681060DDE90676EFF3118210226C
:1048980082F31288BFF36F8F9D68284603F09CF857
:1048A800B6F1FF3F08BFB7F1FF3F06D007493A46C8
:1048B800334605F1180000F0AFFA2046BDE8F8408D
:1048C800FEF72EBA200A0020440A0020D57A0008F4
:1048D800F8B50446EFF31186102383F31288BFF36B
:1048E8006F8F437BDA0649B219D18569BDB903F0E8
:1048F8007F03437303F05EF8437B164A817363F0CA
:104908007F034373134653F8180F984218BF0546A0
:10491800D0695DB9C4E900300460D46111E0A173C5
:10492800002086F31188BFF36F8FF8BD95F90E70DC
:10493800B9420BD08F4209DD6B68C4E900531C6093
:104948006C600120FFF77CFE0120EAE7A842E1D075
:104958002D68DEE7200A002049B9EFF3058030B959
:10496800054B5A699B689A4201D0FEF7D9B981F381
:104978001188BFF36F8F7047200A002010B5EFF33E
:104988001184102282F31288BFF36F8F427B510784
:1049980004D484F31188BFF36F8F10BD22F0040292
:1049A8004273FFF783FE21460248BDE81040FFF737
:1049B800D3BF00BF820A0020034648B9EFF305823F
:1049C80032B9064A51699268914201D0FEF7A8B9F6
:1049D80083F31188BFF36F8F704700BF200A002050
:1049E800EFF31181102383F31288BFF36F8F054B08
:1049F8009A68D37B013BD37381F31188BFF36F8F20
:104A0800704700BF200A002038B5EFF31185102445
:104A180084F31288BFF36F8F0A4B9A68D37B0133F4
:104A2800D3730020FFF70CFE85F31188BFF36F8F57
:104A3800EFF3118084F31288BFF36F8FBDE838401D
:104A4800FFF7BABF200A0020024B03F11802C3E99E
:104A580006227047200A0020F8B5EFF311851023CD
:104A680083F31288BFF36F8F19498868437B03F07B
:104A78007F03437302F09EFF8B685A7B084662F0FF
:104A88007F025A7350F8182FCC69824208BF00225F
:104A980022B9C3E900042360CB610CE093F90E60EE
:104AA80092F90E70BE420ED0B7420CDD5168C3E9D0
:104AB80000210B6053600120FFF7C2FD2846BDE8C6
:104AC800F840FEF72DB9A242E3D01268E0E700BF34
:104AD800200A002050EA01032DE9F04105460E4660
:104AE80003D1FFF7B9FF00202BE0831C71F1FF33DE
:104AF80029DB03F091F82C18EFF31188102383F3C6
:104B08001288BFF36F8F124F124BB8681860FFF707
:104B1800B5FDB86810492A463346183000F07CF9CC
:104B2800BA68537B43F0100353734046FEF7F8F816
:104B380003F072F8201A63EB0303012873F10003F2
:104B4800D1DBBDE8F0816FF00104241AD4E700BF7F
:104B5800200A0020440A0020D57A0008B1F1FF3F5E
:104B680008BFB0F1FF3F08B506D10A4B986802F0BC
:104B780073FF4FF0FF3008BDFFF7ACFFC1170930D6
:104B88004FF00A024FF0000341F10001FBF770FB00
:104B9800F1E700BF200A0020014B9868704700BF6A
:104BA800200A0020D3B5DDE90667089CCDE9006737
:104BB800FFF762FE1CB1034B9B685B69236002B080
:104BC800D0BD00BF200A0020044BC01A044BC010FF
:104BD8005843044B01221A54704700BFC8040020F0
:104BE800ABAAAAAA820A0020C3897F2B12D80A4B33
:104BF8001B6863B1094B90F90E201B689A4209DBC8
:104C0800437BDB0606D1064BC31A18BF012303F00A
:104C1800010070470023FAE74C0A0020480A0020E8
:104C2800A002002070B50E4B0E4C1E7C06EB46030E
:104C380004EBC3040546204602F0D9FF0A4B0022C4
:104C480028469A55FFF7D0FF48B1084B08491A681B
:104C5800013A2046D317BDE8704000F0DDB870BDBA
:104C6800200A0020C8040020820A00204C0A0020E4
:104C7800D14B000838B5EFF31185102383F3128860
:104C8800BFF36F8F104B114A9C681068A04206D181
:104C9800FFF7C8FF85F31188BFF36F8F38BD002178
:104CA8001B7C11600A4AD35C002BF3D02046FFF727
:104CB8009BFF0028EED0637BDB0602D12046FFF77E
:104CC800A1FD2046E4E700BF200A0020440A002096
:104CD800820A0020EFF31181102383F31288BFF3B7
:104CE8006F8F0A4A136A834207D15B6F136281F39D
:104CF8001188BFF36F8F70471346002BF7D05A6F98
:104D08008242F9D1426F5A67F1E700BF200A0020BA
:104D1800F8B506460F46EFF31183102282F3128886
:104D2800BFF36F8F0B490C6A154624B983F31188BA
:104D3800BFF36F8FF8BD83F31188BFF36F8F3946C8
:104D48002046B047EFF3118385F31288BFF36F8FC6
:104D5800646FEAE7200A002008B50648064A0749B2
:104D6800121A02F0F0FDBDE80840054A0549064858
:104D780002F0E9BD0000002000010020389F000873
:104D880000000000389F000800000020034B1B684B
:104D98000BB9FFF757B80020704700BF500A002032
:104DA80030B570B10B4B5B6898420AD0036843B1C9
:104DB800D3E90421D0E90445121941EB0501C3E9FF
:104DC8000421D0E9003213605A600023C0E900339F
:104DD80030BD00BFC800002010B50E4B1C689C42B7
:104DE80004D1FFF7D3FF6FF0004010BDFFF7CEFFEF
:104DF800002CF8D0D4E904321B1A62EBE072B3F14C
:104E0800004F72F10001EEDA002AACBF184600200C
:104E1800EBE700BFC8000020B3F1FF3F08BFB2F1C5
:104E2800FF3FF8B504461D4616465ED08160EFF395
:104E38001187102383F31288BFF36F8F013275F146
:104E4800FF3324DA2E49D1E900206FF001039B1AC1
:104E58004FF0FF3262EB00009E1B60EB0500012E55
:104E680070F1000301DA01260020C4E90460254E30
:104E7800D6F800C07568B44508BF4FF0000CBCF107
:104E8800000F0DD1C4E900652C6074601CE0FFF7C9
:104E98007DFF013645F10005361845EBE070E4E783
:104EA800DCE90420D4E90431934271EB000E1DDAE9
:104EB800D21ADCF8043060EB0100CCE90420C4E924
:104EC80000C31C60CCF804403368B34209D09C424C
:104ED80007D10D4B1C6824B9FFF77EFF2146FEF76A
:104EE80035FF87F31188BFF36F8FF8BD9B1A61EB0D
:104EF8000001AC45C4E90431C4D0DCF800C0BEE709
:104F0800E0040020C8000020500A00202DE9F84FD6
:104F1800EFF3118C102383F31288BFF36F8FDFF840
:104F2800B0A0DFF8B0902C4FC9F80000DAF8000004
:104F38000024504508BF00200025D7E90021D9F8F2
:104F48000030E04678B3D0E9046C4FEAE37EB34220
:104F58007EEB0C0B05DAF61A6CEB0E04C0E9046460
:104F680021E0B21841EBE671C0E90445C7E9002128
:104F7800FFF716FF88F31188BFF36F8F8368984790
:104F8800EFF31188102383F31288BFF36F8FD9F8DA
:104F98000030DAF800009B1B5045C446C9F80030C1
:104FA800CBD1D7E900219A1841EBE3730024C7E974
:104FB8000023C9F80040FFF70FFF2146FEF7C6FEA1
:104FC80088F31188BFF36F8FBDE8F84FFFF752BE23
:104FD800C8000020500A0020E004002010B5EFF3BC
:104FE8001184102383F31288BFF36F8FFFF7CEFE6F
:104FF800054A0346D2E90001181841EBE37184F32E
:105008001188BFF36F8F10BDE00400202DE9F74F22
:105018001D46274B9F68012387F8603087F8613069
:1050280052EA050316460CBF0123002307F160026C
:10503800804602F072FE8146EFF3118B4FF0100AA2
:105048008AF31288BFF36F8F97F860404CB9014616
:105058005A46404602F002FE8BF31188BFF36F8F69
:105068000BE0002387F8603056EA050309D18BF37B
:105078001188BFF36F8F6FF00A04204603B0BDE8B4
:10508800F08FCDE900650B4A0B485946FFF7F4FB52
:105098000446EFF311858AF31288BFF36F8F2A460F
:1050A8004946404602F0DAFD85F31188D6E700BF8D
:1050B800200A0020D0000020830A002038B50346CB
:1050C800EFF31185102282F31288BFF36F8FC1604E
:1050D800012181600068834206D185F31188BFF3FE
:1050E8006F8F0024204638BDD0E9003213605A6023
:1050F8000023C0E9003302F088FE2946044602482E
:10510800FFF72AFCEEE700BF830A0020014800F001
:1051180039BD00BFE49E00081FB5094A92E80300A4
:1051280002AB83E803004FF4806200930549064808
:105138004FF0FF3300F006F9002005B05DF804FBDE
:105148007486000800210020E80400202DE9F043BF
:10515800DFF8348185B005464FF0FF364FF0FF3752
:10516800EFF31189102383F31288BFF36F8FD5F8FB
:10517800B8408CB9022105F1D00002F0C2FE002827
:1051880060D10023CDE90067029305F1C0024946CA
:105198003E48FFF707FDE3E7D5F8BC202368C5F8CC
:1051A800B830944208BFC5F8BC30D5F8D03043F0C9
:1051B8000203C5F8D030E36823F0040343F0010389
:1051C800E360636889F31188BFF36F8F20469847BF
:1051D800EFF31189102383F31288BFF36F8FE3680D
:1051E800D90623F0010237D4E260E3689A071AD59A
:1051F800D8F8000023F00203E360A0B102680021A0
:1052080088B143689C4237D1036869BBD8F8042049
:10521800C8F80030824201D1C8F80430002340F8B1
:10522800083BFFF7E7F8D5F8D03023F00203C5F8BC
:10523800D03089F31188BFF36F8FDB0590D4FFF767
:105248000BFC8DE705F1C80400220121204602F07D
:10525800ABFC0028F8D194E723F01103E36004F1D4
:105268001000FFF7C7F8C0E70B60D8F80430834296
:1052780008BFC8F80410D1E722B1136801461046E8
:105288001A46BDE71346F9E7540A0020830A0020AE
:10529800F8B5C3689A0704460F46C3F340062CD4F2
:1052A8005B071AD40B680BB983680B60E368DD07EA
:1052B80044BFA3683B603D684CBF02260126002D11
:1052C8003AD01F4B9B68AB420AD0D5F8D030D807EC
:1052D800C3F3800214D46FF0120600233B6025E06C
:1052E80002F04DFBD5F8D0300028F0D1D907C3F330
:1052F800C002F0D552B15B0708D46FF00F06ECE797
:10530800002AFAD1C3F3C003002BF6D1002323608F
:10531800D5F8BC3063B9C5E92E44284602F0FCFD37
:10532800E36843F00403E3603B68A3603046F8BDDC
:105338001C60C5F8BC40F0E76FF01506CDE700BF6C
:10534800200A0020F0B589B004460020C4E92E00E8
:105358000E9D04F1C000C4E9300004F1C800C4E99E
:1053680032004DB32879002840F2011008BF01200F
:10537800C4F8D00000204FF0FF364FF0FF37CDE9DA
:105388000330CDE90100CDE906670C4B00942046B7
:10539800FFF72AF955B1296811B12046FFF750F8EF
:1053A8006B791BB1237B43F001032373204609B0BB
:1053B800BDE8F04002F0EBBA0120D9E755510008EA
:1053C8000FB407B5064B04AA186852F8041B0192DB
:1053D80000F010F903B05DF804EB04B0704700BFAB
:1053E800908B00080CB430B589B005460C461C22D9
:1053F800002101A802F08AFE02238DF806300E4B28
:105408000293059523462CB1B4F1004F28BF4FF005
:105418000043013B1D440DAA0C99069501A8009272
:1054280000F0E8F814B1059B00221A7009B0BDE835
:10543800304002B0704700BF25810008242A2DE9BA
:10544800F041044601D8012A4CD102F06FFE354BD9
:1054580016221A5001B10C6000273846BDE8F081C9
:1054680035462E4616F8010B2028F9D0A0F1090779
:10547800042F0346F4D92B2836D02D2837D14FF0E6
:10548800010C6B78AE1C302B38D1307840F02000FE
:1054980078282FD132F010002CD17378344610229E
:1054A80002360CF1004001380027B0FBF2FE02FB87
:1054B8001E08392B82BF03F1FF3343F02003263B3C
:1054C800303B9A421ED9774502DC03D1984501D278
:1054D8004CF0020C354607FB023715F8013B344601
:1054E8002E46E6E70546BCE74FF0000CC9E74FF04B
:1054F800000CC8E7002A08BF0822D2E7002A08BF24
:105508000A22CEE701B10C601CF0010F18BF7F42E0
:105518001CF0020FA1D0074602F008FE014B222220
:105528001A509AE70C000000242AF0B5044601D866
:10553800012A40D102F0FAFD2D4B16221A5001B172
:105548000C600020F0BD2F463D4615F8010B2028C1
:10555800F9D0A0F10906042E0346F4D92B282CD043
:105568002D282CD101267B78BD1C302B2DD12878F5
:1055780040F02000782824D132F0100021D16B7837
:105588002C46102202350020392B82BF03F1FF334D
:1055980043F02003263B303B9A421AD9A0FB020471
:1055A8000CB9C01801D346F002062F462C4617F84E
:1055B800013B3D46E8E70746C6E70026D3E7002655
:1055C800D3E7002A08BF0822DDE7002A08BF0A221D
:1055D800D9E701B10C60F20748BF4042B307B1D523
:1055E80002F0A4FD024B22221A504FF0FF30A9E727
:1055F8000C0000002DE9F04F8DB0436802938378CA
:1056080015469A07804640F10D8100240E78002E39
:1056180000F00A81252E0BD04B1C03930134029B0A
:105628004146304698470028C0F2F6800399EDE7D6
:105638004E788B1C252E0393F0D00027B946BB4625
:10564800BBF11F0F38D8A6F12003102B0AD8DFE8CA
:1056580003F02A0909300909092109090928092D2E
:1056680009091F00A6F13003092B33D92A2E37D197
:105678001BF0400F55F8043B40F08280002BA7BF79
:105688004BF0200B9946C3F100094BF0280B01E0C1
:105698004BF0010B039B13F8016B0393002ECFD142
:1056A80030E04BF0020B4BF0040BF3E74BF0080B28
:1056B800F0E74BF0100BEDE7BBF17F0F19D8A6F11F
:1056C8003003092BD2D81BF0400F03D00A2101FB6D
:1056D8000737DFE70A2101FB09394BF0200BD9E72F
:1056E8002E2E06D11BF0400F40F09E804BF0400B51
:1056F800D0E76C2E31D02BD8682E36D06A2E3CD00D
:105708004C2E3AD0002F46F02003B8BF2BF04002B1
:10571800A3F16501BCBF1FFA82FB0027022901D94A
:10572800612B2FD1073525F00705DFF8ACA2083526
:1057380007271BF0080F66D00AEB070B56465E4595
:1057480063D1A4EB0A0A06EB0A02A9EB07096FE189
:10575800742E9FD07A2E9DD0D4E71BF0800F18BFEF
:105768004BF4007B4BF0800B94E71BF4807F18BF51
:105778004BF4007B4BF4807B8CE74BF4207B89E770
:105788001F4687E7A6F16301122900F2F080DFE8DF
:1057980011F013004F00EE00EE00EE00EE004F0097
:1057A800EE00EE00EE00EE00EE00FE00E900EE0076
:1057B800EE001B00EE00AF0055F8043B8DF81830E2
:1057C80001270DF1180AB4E755F804AB834BBAF179
:1057D800000F08BF9A461BF0400F14BF39464FF020
:1057E800FF31504602F0F1FB0746A2E7029B414613
:1057F8002020984700280FDB013EB742F6D34C44DF
:10580800A41BB14698E74E46F7E716F8010B029B32
:1058180041469847002892DA98F8023043F004038A
:1058280088F802304FF0FF3420460DB0BDE8F08F05
:105838001BF0800F34D01BF4007F2CD0073525F0E7
:105848000705AA4669685AF8080B2BF010050029C5
:10585800ADB237DA404261EB410145F480650DF1A4
:10586800180B0A235A4602F0D2FBA0EB0B03019354
:105878006B0662D5019B25F001019F4289B240F376
:10588800A180002E00F0998015F0100240F09C8055
:10589800BB460D4623E0AA465AF8040BC117D4E7C5
:1058A800AA461BF4807F5AF8041B01D10846F5E785
:1058B8001BF4007F15BF48B208B241F3C01141F391
:1058C800C031C2E750EA0103C9D11BF0400FC6D06E
:1058D800002FC4D12BF0110295B2BB46019740F2BC
:1058E800064115EA01021CBF0BF1010B00222CE056
:1058F8002BF010021FFA82FB0A231BF0800C49D000
:105908001BF400711DBF073525F00705AA46AA46F6
:105918001ABF5AF8080B69685AF8040B50EA0105CF
:1059280045D12BF016051BF0400FADB242D0002F29
:1059380040D12BF0170295B2019715F0100248D00C
:10594800019B002E42D103F1010B29075AD4EB0722
:1059580006D5D9456FDD0199A9EB0B035F18CB4636
:105968005B4649E04BF0100B10237826C5E7782BEF
:1059780004D1C6F1780343F01003BEE7029B414609
:10598800252098470028FFF647AF023447E608234A
:105998000026B2E7AA461BF480715AF8040BBDD062
:1059A8001BF400711ABFC0B2614680B2B6E72BF093
:1059B800060295B20DF1180B54E725F01105ADB2AA
:1059C800BB468CE70D46B8E73B460D4603F1020B94
:1059D800BBE7DDF804B082E72F9F0008289F000886
:1059E800CDE904324146029B202098470028FFF663
:1059F80013AF049B059A01339945F1DCA4EB0B0125
:105A0800CC189B460AB3029B414630209847002891
:105A1800FFF602AF8EB901342744019B391B994226
:105A280024DC1D465DBB019AA9EB0B0922445546AF
:105A38001446914435E0019F92E7023441463046CE
:105A4800029B98470028E7DAE6E640F206410D4255
:105A5800E2D015F0020F14BF2B20202015F4806F20
:105A680004F10104414618BF2D20E9E7029B414695
:105A780030209847002804F10104CEDACCE606ABC2
:105A8800013D4146585D029B98470028CADAC3E6A3
:105A9800029B414620209847002804F10104FFF6A4
:105AA800BBAEA9EB0403002BF2DCBFE5704700EBAB
:105AB800C100408840087047F8B50346FFF7F7FF74
:105AC800B0FA80F0C0F11F0003EB800CCA00DCF8CC
